:040000000C94540008
:100004000C9400000C9400000C9400000C9400006C
:100014000C9400000C9400000C9400000C9400005C
:100024000C9400000C9400000C9400000C9400004C
:100034000C9400000C9400000C9400000C9400003C
:100044000C9400000C9400000C9400000C9400002C
:1000540080C00000003FCDCC4C3D0AD7A33B6F12BB
:10006400033A17B75138ACC5A736BD37063500007B
:100074004465677265653D252B332E3166DF00527A
:100084006F746174696F6E3D7E00526967687400B5
:100094004C6566742000020064015400020068018B
:1000A40072000000F894EE27ECBBF1E0FBBFEBBF5D
:1000B400E5BFF8E1F1BDE1BD8DE0A2E0BB27ED9322
:1000C4008A95E9F780E094E0A0E6ED930197E9F7DB
:1000D400EAE9F0E085919591009761F0A591B591D9
:1000E40005901590BF01F00105900D920197E1F77D
:1000F400FB01F0CFEFE5EDBFE4E0EEBFC0E6D1E0F9
:100104000C942A01A1970E949901FE01FA93EA93A3
:10011400E4E7F0E0FA93EA930E94F6050E94E3070D
:1001240084E00E94B3052896E0E0EA93E1E0EA93D4
:100134000E948901E3E8F0E00E94FF05E1E0E51593
:1001440021F4EEE8F0E00E94FF05E2E0E51521F479
:10015400E4E9F0E00E94FF05E0E0EA93EA930E94FC
:100164008901FE01FA93EA930E94C901A1960895B8
:100174000E94A40957E70E9403060E94A0090CF5F7
:100184000E940306E6E6F6E666EE7FEB0E94370978
:100194000E9428089F01E2E05E2E0E94840000E095
:1001A40010E00217130760F458BB452F5695E42F4F
:1001B400E795E0E0E7950E940C060F5F1F4FF1CF33
:1001C4001CC0E1E05E2E0E9414060E9437090E94C2
:1001D40028089F010E94840000E010E00217130722
:1001E40060F458BB452F550FE42FEE1FE0E0EE1FDF
:1001F4000E940C060F5F1F4FF1CF0E94AB09269699
:1002040008950E940306E0E0F0E064EB73E40E94CA
:100214007C0950F40E94F605A6E6B6E686EE9FE356
:100224000E949B080E941A0608950E940306E0E0BB
:10023400F0E064EB73EC0E947C0909F010F40C9478
:1002440029010E9414060E942A060E941A06089593
:10025400EFEFE7BBE0E0E1BBE0E1EA930E94FB01E2
:100264000E948400829902C00E940301819902C005
:100274000E941701809902C00E94BA00F3CFFFCFF9
:10028400FFE0FA95F1F70895AAB3AF70AABBD99A23
:10029400D8980E944201DA9A0E944201A9B3DA98DE
:1002A4000E944201DA9A0E944201DA98A7FDF1CF36
:1002B4000895A07FAB2BABBBDA9A0E944201DA9877
:1002C4000E9442010895D998AAB3A76FAABBBBB3F1
:1002D400BF70A8810E945B01A881A2950E945B0166
:1002E400D99A21960895DA9A0E944201E9B3DA98DC
:1002F4000E944201E07F08950E9442010E9475011C
:10030400AE2F0E947501D998E295EA2B08950E94B8
:100314004601E881F0E0EC59FE4FE081A981EA0F43
:10032400EA930E94650149807880229608950E948C
:100334004601E2E0EA930E9465010E944601ECE076
:10034400EA930E9465010E944601E1E0EA930E945B
:100354006501E0E07E2E4E2E0895EF93FF93A88171
:100364006894AA3021F0E8944394641438F47394A4
:10037400E0E0EA937A920E9489012EF085DFD89A10
:10038400A881AA93A0DFFF91EF91219608951A9373
:10039400A981BA81ED91A983BA831E2FE03021F09F
:1003A4001A930E94AF01F4CF188110C01A93E98107
:1003B400FA813196E983FA833197E4911E2FE03074
:1003C40021F01A930E94AF01F2CF18812396089569
:1003D400AA27BB271197F1F70895D998AAB3A76F55
:1003E400AABBBBB3BF70A8810E945B01D99A2196B6
:1003F4000895DA98D8986880E881E058E093660117
:10040400E881E054E09367010E942F060E942F06C2
:100414000E942F060E94EA01E0E2EA930E94EF01A3
:100424000E94EA01E8E20E943506E4E00E943506F3
:10043400E5E80E943506AAB3AF70AABBD99A0E9418
:100444007E01E53011F0E0E009C00E944601E6E0DB
:10045400EA930E9465010E949901E1E021960895C2
:100464005F9BFECFECB108955D9BFECFE881ECB9B4
:10047400219608951A930A93AC81BD810E94D307F3
:100484003097B9F0AA81BB810E94D3078F013097BE
:1004940049F00230E0E01E0758F0F80131978F016F
:1004A400ED93FC93AC81BD810E943A06AE81A0839A
:1004B40004C0EE81EA930E943602198108812796CE
:1004C400089524971A930A93A885A73010F0E6E0BC
:1004D400E887E885A6E5B0E0F0E00E946F07EA0F40
:1004E400FB1F0E94DD070E9441060E949B080E9498
:1004F400460610E0E0E0F0E060E87FE30E944B068F
:100504000E9450060E947C0940F00E9455060E94F9
:10051400E9080E944B061F5FF3CF103029F40E94B4
:100524005E06E0E3EC9324C0E12F1150E03001F1CA
:100534000E9455060E9465060E944B060E945006C2
:100544000E9437090E942A080E2F0E945E060E940C
:100554007106AA81BB818C819D810E9476060E94CE
:10056400E9080E9441060E942A060E944606DCCF42
:10057400E885E03029F4AE81BF81E0E0EC9327C048
:100584000E945E06EEE2EC93E885E150E887EF5FB7
:10059400D1F00E9441060E947C060E944606E9852D
:1005A400FA856B857C850E9428080E2F0E945E06C2
:1005B4000E9471060E9441060E9476060E942A0645
:1005C4000E944606E1CFAE81BF81E0E0EC93198141
:1005D40008812D96089524970E94A609E0E0F0E092
:1005E40060E87FE30E948306AB85A73010F0E6E065
:1005F400EB871B85E12F1150E03029F00E9488061B
:100604000E948306F7CF0E948D060E949C0931F454
:1006140030E00E9488060E94830634C03B850E9415
:10062400920609F010F40C9424030E9488060E9498
:1006340083060E94920628F00E949D060E94A2064C
:10064400F8CF0FC00E94920640F40E949D060E94BB
:100654007C060E94AE063150F5CF0E9488060E94A7
:1006640083060E948D06A0E0B0E080E09FE30E9434
:100674009B080E94AE060E94920620F00E949D06EE
:100684000E94A20610E0EB85E11790F1AC81BD81D8
:100694008E819F81E0E0F0E060E271E40E946506F3
:1006A4000E948306EC81FD816E817F810E949D06FC
:1006B4000E9437090E942A080E2F0E94B3060E9446
:1006C40071060E947606AC81BD818E819F810E9455
:1006D400E9080E949D060E942A060E94AE06E12FA8
:1006E4001F5FE03081F60E94B306EEE2EC93CBCFBD
:1006F4000E94BA06AA85A08330302CF40E94B30667
:10070400EDE2EC9331953A3054F00E94BA06BF0101
:10071400A32FEAE00E948D07E05DDB01EC930E94C9
:10072400BA06BF01A32FEAE00E94B707E05DDB0130
:10073400EC93A885B985E0E0EC930E94AD0960963E
:100744000895EF972F970E94A40910E0FE01EC5A38
:10075400FF4F0190F081E02DE88BF98BDE01A65A62
:10076400BF4F0E943A06E4912E2FE03011F40C940E
:10077400AE05E12FE03039F4253211F411E002C066
:100784000E94C106E8C1E130C1F4253219F40E9487
:10079400C106E0C112E0E0E0EB8B00E02D3211F481
:1007A40001E0D9C12B3219F4EBE2EB8BD4C1203236
:1007B40019F4E0E2EB8BCFC102C0E23039F450E02F
:1007C40013E0203311F40068C6C102C0E330A1F481
:1007D400203310F02A3308F009C0A52FEAE0EA9F7D
:1007E400F0015E2FE22FE0535E0FB5C140E02E32E0
:1007F40011F414E0B0C111C0E430A9F4203310F0B6
:100804002A3308F00AC00062A42FEAE0EA9FF0014C
:100814004E2FE22FE0534E0F9EC12C3619F4026086
:1008240015E099C104C0E53011F00C94AD05E22F38
:10083400E33631F40E94D006E4810E94D9068AC1CD
:10084400E53411F0E53609F404C0E63611F00C94F1
:100854007304FE017496EA87FB870E94D0063496DF
:10086400DF010E94D7070E94E806DF01CB010E9446
:10087400A00924F0AB89AB3249F012C00E94ED0606
:100884000E94F5070E94E806EDE2EB8B07FF04C027
:10089400EB890E94D90604C00E94F206AB89A083AA
:1008A40005FF46E0263661F40E94ED060E94E30748
:1008B4004A93EF85F889FA93EA930E9463020CC085
:1008C4000E94ED060E94E3074A932A93E889F98976
:1008D400FA93EA930E94ED02FE0174960E94F906CF
:1008E4001EC0E33739F40E94D0060E9401070E941B
:1008F400F9060EC0E037C1F40E94D0060E94010739
:10090400EA87FB87FA93EA930E94EB051E2F08609F
:100914000F77403011F0411708F001C0142F40E068
:10092400E0E0EA8B30E06FC0E43611F0E93611F410
:10093400046002C0E537A1F4EAE0EA8B01FF08C0D5
:10094400E0E0FAEC6AE97BE30E94AE061AE023C019
:10095400E0E1F7E260E070E00E94AE0615E01BC043
:10096400E83511F4086004C0E83711F00C94AC05C4
:10097400E0E1EA8B01FF08C0E0E0F0E060E070E154
:100984000E94AE0618E007C0E0E0F0E160E070E02D
:100994000E94AE0614E0403011F00F7701C041E030
:1009A40001FF07C00E94D0063496DF010E94D707DA
:1009B4000FC002FF07C00E94D0060E9401070E94D8
:1009C4007A0706C00E94D0060E940107662777278F
:1009D400EE83FF836887798702FF14C00E940607AD
:1009E4000E94A00944F40E94ED060E9467070E9439
:1009F400E806EDE2EB8BEB89E03019F01F5F4F5F07
:100A040001C00B7F342F00FD14C0151710F43517E7
:100A140008F00FC007FF08C002FF04C00B7F2B893A
:100A2400115001C020E301C020E20E94C1065150D0
:100A3400ECCF141788F4006102FF06C00E940B0774
:100A440009F0515011504150E0E30E94D906503052
:100A540009F051504150EDCF312FEA89E03011F5C2
:100A64003030F9F003FF04C00E94F206E49105C09F
:100A7400AA85BB85ED91AA87BB87EA93FE01E95A53
:100A8400FF4F0190F081E02DFA93EA93FE017396F3
:100A9400FA93EA930E943C02503009F051503150CD
:100AA400DFCF4FC00E948D060E9406070E94920766
:100AB4002E2F2A3030F003FF02C0295C01C0295ACE
:100AC40001C0205D04FD1FC0213350F40E949D0627
:100AD400A130E0E0BE07E0E08E07E0E09E0709F405
:100AE4000BC0431740F4531710F000FF01C010C0AF
:100AF40020E207FF08C020E3006102FF04C00E9457
:100B04000B0709F051500E94C106503009F05150B2
:100B140031500E948D060E9406070E94C3070E945E
:100B2400E806EA890E949D06FF27662777270E9428
:100B340092070E94AE060E948D060E949C0909F04D
:100B4400B1CF00FF07C0503029F05150E0E20E94BD
:100B5400D906F9CF10E002CE0E94AB09EF966D964C
:100B64000895FF92F82E22971A930A93DE010E94A9
:100B740063078D01DE0116960E9463070E94D30766
:100B8400EA83FB83DE0114960E9463070E94D30765
:100B9400FA93EA931A930A93FE013696FA93EA9328
:100BA400E0E0F0E0FA93EA930E94A303AA81BB81F8
:100BB400E0E0EC93198108812496FF900895A991AF
:100BC400B991EE27FF276D91662311F03196FBCF83
:100BD4000895AA27BB27E991F9910590002011F007
:100BE4001196FBCFFD010895E0916001F091610140
:100BF40060916201709163010895FA93EA930C94F1
:100C0400D801A0916001B09161018091620190913D
:100C1400630108954E2F542BE2E3F0E0FA93EA9334
:100C24000C941F07EEDFE6E6F6E666EE7FE3089532
:100C3400E0936001F093610160936201709363013A
:100C44000E948400E8ECF0E0FA93EA930C941F0706
:100C54000E94E8070E94940808950E94EA01E0E3D4
:100C6400EA930C94EF01EA930E9465010C94EA0163
:100C7400ED91FD913196FE93EE9331970895A985F8
:100C8400BA858B859C850895E987FA876B877C876D
:100C94000895EA83FB836C837D830895EA81FB8155
:100CA4006C817D81ECCFAA81BB818C819D81E0E048
:100CB400F0E060E271E40895AE81BF811196AE83E5
:100CC400BF83119708950E943709A0E0B0E080E047
:100CD4009FE30E949B080E94E3070C945A07E02FAD
:100CE400E05DEC93E02F0895FF27662777270E94A5
:100CF40061080895E0E0F0E060E271E40E94E90830
:100D04000895EC83FD836E837F830895AC81BD8158
:100D14008E819F81EFCFEC85FD856E857F8508955B
:100D2400EC81FD816E817F81AC85BD858E859F853B
:100D34000E947C090895AC85BD858E859F850895A4
:100D4400E0E0F0E060E271E40E943709EC87FD879F
:100D54006E877F873F5F0895EC87FD876E877F8767
:100D64000895A885B9851196A887B987119708951C
:100D7400E885F9853196E887F987319708952A93AC
:100D8400FE01E95AFF4F0190F081E02DFA93EA93B6
:100D9400FE017396FA93EA930C943C02DE01A85A7E
:100DA400BF4FED91FD913497FE93EE930895EA932E
:100DB400FE01E95AFF4F0190F081E02DFA93EA9386
:100DC400FE017396FA93EA930C943C02EE83FF833C
:100DD400688779870895EE81FF816885798508950C
:100DE400EA85FB853196EA87FB8731970895EA8780
:100DF400FB87FA93EA930E94E1051E2F0895349627
:100E0400DF010E94D3070895AE81BF81888599854B
:100E140008950B7FEB89EA93FE01E95AFF4F019095
:100E2400F081E02DFA93EA93FE01E95AFF4FFA9319
:100E3400EA930E943C0250300895E991F99130966A
:100E440039F080ED97E00197F1F7A8953197C9F74C
:100E540008957B816A81F981E88177FB770F67FDCB
:100E64007160972F9E5781F078F0983190F4AA27FB
:100E7400BB27882708948795B795A7959A95D1F7A6
:100E8400EA23FB23682305C0E8947727EE27FF278E
:100E940066276F77769508F4606877F9A991B99118
:100EA40089919991EA17FB076807790797FB0895D9
:100EB400D0DF09F40895F6F79FEBAA27BB2780E853
:100EC40038C10024AF0DB01D0895F095609570955C
:100ED400E195FF4F6F4F7F4F0895EE0FFF1FEE0F09
:100EE400FF1F0895FE2FFF0FFF0B6F2F7F2F089515
:100EF4006F2F660F660B762F0895002498E0AA0FD3
:100F0400001C0E1A10F40E0E01C0A1609A95B9F7D8
:100F1400EA2FA02D089539D0F0DF0EF4E19508955D
:100F24003F934F935F93002411244427552730E2C5
:100F3400AA0FBB1F881F991F001C111C441F551F9B
:100F44000E1A1F0A460B570B28F40E0E1F1E461FBF
:100F5400571F01C0A1603A9559F7FD01BC01D001AA
:100F6400CA015F914F913F910895E894A7FF02C091
:100F7400A1956894E7FDE195C0DFEA2F0EF4E195B1
:100F84000895CEDFFD01BC010895E894E7FF02C097
:100F9400E1956894A7FF04C0A19500F8039400FAB2
:100FA4000895ED91FC9111970895ED91FD916D9146
:100FB4007C91139708950590159065917491F001B3
:100FC40008957A936A93FA93EA930895182E862FD4
:100FD400612D192E972F712D1B2EBF2FF12D1A2E37
:100FE400AE2FE12D089530976040704009F070589D
:100FF4000895552342F4503811F4E0FF04C03196AB
:10100400691F791F6BF050E8572711F45F93CDC027
:101014005F3F31F0660F000C57956795752F089563
:101024005F9300200AF0CDC0C6C050E8192E1522E7
:10103400880F991F9527550F879550E8072E05228D
:10104400660F771F7527550F67950895689401C03B
:10105400E8945F93F2DF703818F07F3F08F4A5C07E
:1010640056E1571BAAF4519558300EF4593030F01C
:10107400EFEFFFEF6FEF7FE777F91AC0772755237C
:10108400B9F0EE0FFF1F661F771F5A95D1F710C0F6
:101094007727583028F0EF2FF62F672F5850F9CFC5
:1010A400552331F076956795F795E7955A95D1F7DD
:1010B40000200AF40ADF5F910895689401C0E8945F
:1010C400309760407040B1F0002426F0772312F48A
:1010D4000094FBDE172E7EE1112032F07A95EE0F9C
:1010E400FF1F661F111CF9CFEF2FF62F612D5F93A1
:1010F4008ADF5F9108954F93AF01FD01DA01AB01DF
:10110400BC01CA01402D012C142E4F910895EA0F01
:10111400FB1F681F0895E095F0956095EF5FFF4F02
:101124006F4F08955F9381DF903871F150E8152671
:1011340004C05F937ADF903839F1703821F1572F6A
:10114400591B13F112F4D7DFFACF583118F0AA273C
:10115400BB278827583028F0AB2FB82F8827585042
:10116400F9CF552329F08695B795A7955A95D9F7C0
:10117400502D512562F0CBDF38F46795F795E7954C
:10118400739513F41EC0B7DF3EDF5F910895EA1B29
:10119400FB0B680B51F010F40094BDDF6623A2F33F
:1011A400EE0FFF1F661F7A95CBF7EE27FF27662702
:1011B40077275F910895EFEFFFEF6FE77FEF5F9180
:1011C4000895EFEFFFEF6FE77FE75F9108955F9377
:1011D4002CDF703851F3903841F301240894791FBF
:1011E40023F41CF300203AF3ECCF0F921F932F93B8
:1011F4003F934F93112722279927689FA0018F9F20
:10120400302D410D591F6B9F300D411D591F8E9F6D
:1012140027D0BF9F25D06A9F23D0BE9F1DD0AF9FEC
:101224001BD0AE9F110D291F391F491F591FE32FD2
:10123400F42F652F522F4F913F912F911F910F90B3
:1012440066232AF0550FEE1FFF1F661F02C0739519
:101254004BF2CFDE5F910895100D211D391F02C09E
:10126400200D311D491F591F08955F93DEDE70382C
:1012740021F411200AF49FCFA4CF903809F495CF1C
:1012840001240894970B1BF4D4F30020F3CF792F97
:101294001F932F933F934F93112411272227332712
:1012A4004427552790E2AE17BF078607410730F061
:1012B400AE1BBF0B860B410B089401C08894551FCD
:1012C400221F331F111CAA1FBB1F881F441F9A957E
:1012D40051F7F901612D4F913F912F911F91662391
:1012E40032F0550FEE1FFF1F661F7A9543F281DE21
:1012F4005F91089599239AF0772342F0971748F065
:1013040029F4AE17BF07860720F031F0989488942B
:1013140008959894089408951894889408957723C8
:10132400C2F7971798F3A9F7EA17FB07680788F33A
:1013340099F3ECCF30976040704008951097804047
:10134400904008955A934A933A932A931A930A938E
:1013540008955D814C813B812A811981088108951A
:00000001FF
